:10000000031E0800860105282F285F308C000D3064
:1000100084008001840A8C0B09282E282320840068
:10002000073984060310840C840C840C041A84178A
:1000300004128A0182070134023404340834103473
:1000400020344034803407398A0182073034313417
:100050003234333434343534363437349629AF00BF
:10006000030EB0000408B1000B10860831088400AC
:10007000300E8300AF0E2F0E0B1109000C080F3944
:1000800082073F3406345B344F3466346D347D343C
:100090000734BF348634DB34CF34E634ED34FD34FA
:1000A00087340D089B000C089A000F089D000E086D
:1000B0009C00C62B0D08CB000C08CA000F08CD0011
:1000C0000E08CC00C62B4B0891004A0890004D0842
:1000D00093004C089200C62B960197011008031953
:1000E00077281A02031D7728960A90019A011108B1
:1000F000031980281B02031D8028960A91019B0189
:100100001208031989281C02031D8928960A9201E6
:100110009C011308031992281D02031D9228960AB8
:1001200093019D01100803199B281B02031D9B28A6
:10013000970A90019B0110080319A4281C02031DB3
:10014000A428970A90019C0110080319AD281D02EC
:10015000031DAD28970A90019D0111080319B628C7
:100160001A02031DB628970A91019A011108031972
:10017000BF281C02031DBF28970A91019C0111088A
:100180000319C8281D02031DC828970A91019D0163
:1001900012080319D1281A02031DD128970A9201C7
:1001A0009A0112080319DA281B02031DDA28970A9C
:1001B00092019B0112080319E3281D02031DE32885
:1001C000970A92019D0113080319EC281A02031DD6
:1001D000EC28970A93019A0113080319F5281B02CA
:1001E000031DF528970A93019B0113080319FE28A4
:1001F0001C02031DFE28970A93019C01C62BC830E0
:100200008D003E208C000C08C03986000C08303967
:1002100086000C080C3986000C08033986008D0B0B
:10022000032900308600C62B443037234430B123E5
:10023000073068232208A1002108AE2300308B2359
:10024000031D24290130A100C62B0030A2008530F7
:100250001D230730A20005301D234A088C00FF2013
:100260000B30A20005301D234B088C00FF200D3001
:10027000A20005301D234C088C00FF200E30A20088
:1002800005301D234D088C00FF20C62B0030A20036
:1002900085301D230730A20005301D2315088C0072
:1002A000FF200030A20085301D230B30A200053056
:1002B0001D2314088C00FF20C62BFF30A2008530C0
:1002C0001D2386013F30AA23831681138312013038
:1002D00021230608A1002108AE23C0309023031D6E
:1002E0007A29643021230608AE23C0309023031DF1
:1002F0007A297129FF30AA2386010030A2008530B7
:100300001D23C62B7F30AA230030A20085301D2379
:100310000F30A20005301D238030860086088B1523
:100320008B1783168113831263009629FF30AA234B
:100330008B11831681138312093021235D214430F0
:10034000B12301306F234430B8232108AE23C030DD
:100350009023031D822944303723CF01CE019F0112
:100360009E01980114212108CA0014212108CB0004
:1003700014212108CC0014212108CD0025215D2164
:100380002108AE23C0309023031DBE29940195019E
:1003900051215D212108AE2340309023031DD72930
:1003A0002108AE2380309023031DE529C8291408B5
:1003B000AE2301306F23220894001408AE230530C9
:1003C0009A23031DC8299401C82946215D212108CB
:1003D000AE2340309023031DF4292108AE23803042
:1003E0009023031D022AE5291508AE2301306F234F
:1003F000220895001508AE2305309A23031DE52930
:100400009501E529632014080F39A000150EF03975
:10041000A0043230180718071807840010080F3995
:100420008000800E11080F398004840A12080F39E9
:100430008000800E13080F398004840A2008800091
:100440001808AE2301306F23220898009F019E01F7
:1004500007308C0007308D0007308E0007308F008A
:1004600099011908AE2318089023031D622A32301F
:10047000190719071907840000080F399100000EA9
:100480000F399000840A00080F399300000E0F39CD
:100490009200840A0008A00051206C2016080F3931
:1004A000A100170EF039A1042008AE2321089023E3
:1004B000031D5B2A7B2A1908AE2301306F23220813
:1004C0009900312A1E30B12301306F231E30B8232A
:1004D00044303723FF30A300FF30A2001E30BF237B
:1004E00053234630B8234630B1234430BF239C23E6
:1004F000031D7B2A5A204E30B12301306F234E302A
:10050000B8238F0B302A07308F008E0B302A07302C
:100510008E008D0B302A07308D008C0B302A07306F
:100520008C00922A1E30B12300309023031D142B1F
:100530001E30B12301309023031D9F2ABE294A0893
:10054000AE2308304C232208CA00C701C60125216A
:100550004630B1237F234630B82300309A23031D51
:10056000B52A0A308B230319A72A5D212108AE235F
:10057000C0309523031D96294B08AE2308304C2329
:100580002208CB00C701C60125214630B1237F23B5
:100590004630B82300309A23031DD22A0A308B2319
:1005A0000319C42A5D212108AE23C0309523031D01
:1005B00096294C08AE2308304C232208CC00C701F2
:1005C000C60125214630B1237F234630B8230030B1
:1005D0009A23031DEF2A0A308B230319E12A5D2198
:1005E0002108AE23C0309523031D96294D08AE2364
:1005F00008304C232208CD00C701C6012521463012
:10060000B1237F234630B82300309A23031D0C2BDF
:100610000A308B230319FE2A5D212108AE23C03046
:100620009523031D96299F2ACA01CB01CC01CD0138
:100630009F2A1A2307302F231A2B840022088000B8
:10064000C62BA301A2007D23640023082204031902
:100650000800F730FF3E031D2A2B7F23242B83162F
:100660000739F83881006300FF308100C62BA400F1
:10067000B1233D232408B823C62B230822040319E1
:10068000A20A8030221AA3062219A306A218A306E2
:10069000230DA20DA30D0800A501A4002408A206A5
:1006A0002508A306C62B1030AB00AA01A90103142C
:1006B000A20DA30DA90DAA0D832329307223031CBB
:1006C000221083232930221C7223AB0B572BC62BFD
:1006D000A501A4002408A2052508A305C62BA50191
:1006E000A40022308400240880072508840F00001D
:1006F0000318013E031C8007C62BA309A209A20A06
:100700000319A30A08008823A40A0319A50AC62B03
:10071000A509A409C62BA501A4009F230139C62B56
:10072000A501A4009F230239C62BA501A4009F2385
:100730000539C62BA501A4009F230439C62B250823
:100740002302031DA72B2408220203190234031CD1
:1007500004340134FF3A83168600C62BA301A2009D
:10076000C62B84000008A200840A0008A300C62B40
:10077000840022088000840A23088000C62B84009D
:100780000008A400840A0008A500C62B8312640098
:0207900008005F
:00000001FF
