:020000040000FA
:02000000442991
:080008008C2A830180308F0077
:1000100000308E018B018C01831683308100073004
:100020008C010C149F000F3085008601043089007C
:1000300080308800870183128C018B018B178B160F
:100040000B170E30900010148601891009108711CB
:100050000711871207120800051C6D20AF19080050
:100060002F196020AF1835200800851D5728881FDC
:100070004F28851C4728051D3E280800051D3E28E1
:10008000B20A3C3032020319B20197200800851CE5
:100090004728B10A183031020319B1014528881FD9
:1000A0004F28B00B55280130B000F6200800851D00
:1000B0005728B00A64303002031D5528B003552874
:1000C000851C6520051D69200800851C65286F2199
:1000D0000800051D692864210800051C6D280130F1
:1000E000B000F62001302F02031D7B282F10AF1423
:1000F0002F11AF11080002302F02031D84282F108A
:10010000AF102F15AF11080004302F02031D8D28EA
:100110002F10AF102F11AF15080008302F02031D4C
:1001200096282F14AF102F11AF110800080083017B
:100130008B1380300602031D9F281830C8284030DA
:100140000602031DA5281930C82820300602031D09
:10015000AB281A30C82810300602031DB1281B3006
:10016000C82808300602031DB7281C30C8280430F0
:100170000602031DBD281D30C82802300602031DDB
:10018000C3281E30C82801300602031DC8281F30AE
:10019000F1003008F000F0033208F2003108F300FB
:1001A000831603137008831203178D00831603133D
:1001B0007108831203178F008316031372088312CA
:1001C00003178C008312031773088E00831603171E
:1001D0008C170C1555308D00AA308D008C14000042
:1001E00000000C11831203138B17080083018B137B
:1001F00080300602031DFE281830272940300602F1
:10020000031D04291930272920300602031D0A295D
:100210001A30272910300602031D10291B30272908
:1002200008300602031D16291C3027290430060257
:10023000031D1C291D30272902300602031D222917
:100240001E30272901300602031D27291F30F10027
:100250003008F000F0038312031770088D00710856
:100260008F00831603178C170C14000000008312F4
:1002700003170C08F2000E08F30083017208B200A5
:100280007308B1008B1708000520862109194C2935
:1002900088016300000046292C2033192C234629AD
:1002A000AF1D0800331C5E29B40B572959290516C8
:1002B0005E2905120230B40033105E29A80A3C30D2
:1002C0002802031D0800A80133152F19A801A90A47
:1002D0003C302902031D0800A9012F1908002F191D
:1002E000A801AA0A18302A02031D0800AA012F1922
:1002F00008003A2208002C230800891009148711ED
:100300000711871207120630EA2108000030AA0000
:100310003B30A9003B30A8008617AF01AF15013074
:10032000B000B101B201F620051289140230B40008
:10033000B501AF152F10AF102F110800AF18A7216E
:100340002F18EE212F19B721AF19B7210800310856
:100350008122A2002108A30032088122A4002108E2
:10036000A50030088122A6002108A700C6292A0876
:100370008122A2002108A30029088122A4002108CB
:10038000A50028088122A6002108A700891CCC29E5
:10039000891009142308EA29091CD2290910871594
:1003A0002408EA29871DD829871107152508EA2975
:1003B000071DDE29071187162608EA29871EE4296A
:1003C000871207162708EA29071EC629071289146B
:1003D0002208EA2916238800880908007D21851D46
:1003E0004722881F3822851CF6210800851CF62923
:1003F000861F012A8030B506B51B0614B51F0610EE
:10040000372A061F0A2A4030B506351B0614351F49
:100410000610372A861E132A2030B506B51A061490
:10042000B51E0610372A061E1C2A1030B506351ACE
:100430000614351E0610372A861D252A0830B506F3
:10044000B5190614B51D0610372A061D2E2A0430CC
:10045000B50635190614351D0610372A861C372AAD
:100460000230B506B5180614B51C0610372A080068
:10047000881F382A0608AC000310AC0C2C1C422A3A
:10048000AC172C10013086052C088607562A851DCE
:10049000472A0608AC002C100310AC0D031C512A8F
:1004A000AC14013086052C088607562A861F5C2A64
:1004B000B51F0610B51B0614061F622A351F06104D
:1004C000351B0614861E682AB51E0610B51A0614BA
:1004D000061E6E2A351E0610351A0614861D742A4D
:1004E000B51D0610B5190614061D7A2A351D06100D
:1004F00035190614861C802AB51C0610B51806147A
:100500000800A101A0000A302002031C8A2AA000D2
:10051000A10A832A200808008B138312AD00030868
:10052000AE000C18972A0B199E210B119B2A0C1058
:1005300080308F00502183122E0883002D088B17E6
:020540000900B0
:10060000AC0003308A002C080F39820730343134B3
:10061000323433343434353436343734383439348E
:10062000413442344334443445344634AC0003301E
:100630008A002C080F398207C034F934A434B0344E
:10064000993492348234F834803490348634AF3420
:100650008C349C34F934BF34AF1D080033110618B4
:1006600008000130B000F62032082902031D3C2B9F
:1006700031082A020319422BB00A64303002031DEC
:10068000332B0800331408000130472B0930830155
:100690009F00831603138E309F000F308500830167
:1006A0001F151F19512B1E08A100831603131E08C6
:1006B00083120313A000A10CA00C633020020318C6
:0C06C000622B642B6330A00020080800AF
:1030000000000F001E002D0000010F011E012D0108
:1030100000020F021E022D0200030F031E032D03E8
:1030200000040F041E042D0400050F051E052D05C8
:1030300000060F061E062D0600070F071E072D07A8
:1030400000090F091E092D09000B0F0B1E0B2D0B7C
:10305000000C0F0C1E0C2D0C000D0F0D1E0D2D0D58
:10306000000E0F0E1E0E2D0E000F0F0F1E0F2D0F38
:1030700000100F101E102D1000110F111E112D1118
:1030800000120F121E122D1200130F131E132D13F8
:1030900000140F141E142D1400150F151E152D15D8
:1030A00000160F161E162D1600170F171E172D17B8
:1032000001000F001E002D0001010F011E012D0104
:1032100001020F021E022D0201030F031E032D03E4
:1032200001040F041E042D0401050F051E052D05C4
:1032300001060F061E062D0601070F071E072D07A4
:1032400001080F081E082D0801090F091E092D0984
:10325000010A0F0A1E0A2D0A010B0F0B1E0B2D0B64
:10326000010C0F0C1E0C2D0C010D0F0D1E0D2D0D44
:10327000010E0F0E1E0E2D0E010F0F0F1E0F2D0F24
:1032800001100F101E102D1001110F111E112D1104
:1032900001120F121E122D1201130F131E132D13E4
:1032A00001140F141E142D1401150F151E152D15C4
:1032B00001160F161E162D1601170F171E172D17A4
:1034000002000F001E002D0002010F011E012D0100
:1034100002020F021E022D0202030F031E032D03E0
:1034200002040F041E042D0402050F051E052D05C0
:1034300002060F061E062D0602070F071E072D07A0
:1034400002080F081E082D0802090F091E092D0980
:10345000020A0F0A1E0A2D0A020B0F0B1E0B2D0B60
:10346000020C0F0C1E0C2D0C020D0F0D1E0D2D0D40
:10347000020E0F0E1E0E2D0E020F0F0F1E0F2D0F20
:1034800002100F101E102D1002110F111E112D1100
:1034900002120F121E122D1202130F131E132D13E0
:1034A00002140F141E142D1402150F151E152D15C0
:1034B00002160F161E162D1602170F171E172D17A0
:1036000003000F001E002D0003010F011E012D01FC
:1036100003020F021E022D0203030F031E032D03DC
:1036200003040F041E042D0403050F051E052D05BC
:1036300003060F061E062D0603070F071E072D079C
:1036400003080F081E082D0803090F091E092D097C
:10365000030A0F0A1E0A2D0A030B0F0B1E0B2D0B5C
:10366000030C0F0C1E0C2D0C030D0F0D1E0D2D0D3C
:10367000030E0F0E1E0E2D0E030F0F0F1E0F2D0F1C
:1036800003100F101E102D1003110F111E112D11FC
:1036900003120F121E122D1203130F131E132D13DC
:1036A00003140F141E142D1403150F151E152D15BC
:1036B00003160F161E162D1603170F171E172D179C
:1038000004000F001E002D0004010F011E012D01F8
:1038100004020F021E022D0204030F031E032D03D8
:1038200004040F041E042D0404050F051E052D05B8
:1038300004060F061E062D0604070F071E072D0798
:1038400004080F081E082D0804090F091E092D0978
:10385000040A0F0A1E0A2D0A040B0F0B1E0B2D0B58
:10386000040C0F0C1E0C2D0C040D0F0D1E0D2D0D38
:10387000040E0F0E1E0E2D0E040F0F0F1E0F2D0F18
:1038800004100F101E102D1004110F111E112D11F8
:1038900004120F121E122D1204130F131E132D13D8
:1038A00004140F141E142D1404150F151E152D15B8
:1038B00004160F161E162D1604170F171E172D1798
:103A000005000F001E002D0005010F011E012D01F4
:103A100005020F021E022D0205030F031E032D03D4
:103A200005040F041E042D0405050F051E052D05B4
:103A300005060F061E062D0605070F071E072D0794
:103A400005080F081E082D0805090F091E092D0974
:103A5000050A0F0A1E0A2D0A050B0F0B1E0B2D0B54
:103A6000050C0F0C1E0C2D0C050D0F0D1E0D2D0D34
:103A7000050E0F0E1E0E2D0E050F0F0F1E0F2D0F14
:103A800005100F101E102D1005110F111E112D11F4
:103A900005120F121E122D1205130F131E132D13D4
:103AA00005140F141E142D1405150F151E152D15B4
:103AB00005160F161E162D1605170F171E172D1794
:103C000006000F001E002D0006010F011E012D01F0
:103C100006020F021E022D0206030F031E032D03D0
:103C200006040F041E042D0406050F051E052D05B0
:103C300006060F061E062D0606070F071E072D0790
:103C400006080F081E082D0806090F091E092D0970
:103C5000060A0F0A1E0A2D0A060B0F0B1E0B2D0B50
:103C6000060C0F0C1E0C2D0C060D0F0D1E0D2D0D30
:103C7000060E0F0E1E0E2D0E060F0F0F1E0F2D0F10
:103C800006100F101E102D1006110F111E112D11F0
:103C900006120F121E122D1206130F131E132D13D0
:103CA00006140F141E142D1406150F151E152D15B0
:103CB00006160F161E162D1606170F171E172D1790
:103E000007000F001E002D0007010F011E012D01EC
:103E100007020F021E022D0207030F031E032D03CC
:103E200007040F041E042D0407050F051E052D05AC
:103E300007060F061E062D0607070F071E072D078C
:103E400007080F081E082D0807090F091E092D096C
:103E5000070A0F0A1E0A2D0A070B0F0B1E0B2D0B4C
:103E6000070C0F0C1E0C2D0C070D0F0D1E0D2D0D2C
:103E7000070E0F0E1E0E2D0E070F0F0F1E0F2D0F0C
:103E800007100F101E102D1007110F111E112D11EC
:103E900007120F121E122D1207130F131E132D13CC
:103EA00007140F141E142D1407150F151E152D15AC
:103EB00007160F161E162D1607170F171E172D178C
:02400E00313F40
:00000001FF
