:020000040000FA
:10000000831603138101C02A8B138B1B04289700CE
:10001000030E980083010A0899008A0183130408DB
:100020009A00931F37281B08073C031C1D281C1C23
:1000300005121C1805169C0C65281B08083C031C9F
:100040002628141C05121418051665281B08093CDF
:10005000031C302883160313051683120313652827
:100060001B080B3C031C65289B01931366289B0807
:10007000031D3D28051A622865281B08083C031C3F
:100080004928051E9C13051A9C17031965289C0C0A
:1000900065281B08093C031C4E286528051E62289C
:1000A00094185B2813178316031306108312031387
:1000B00006100B1263280F081C02031D62289410FF
:1000C0009B0166289C019B0166289B0A8B101A08DD
:1000D000840019088A00180E8300970E170E090075
:1000E0001C089D00F03C031D782813141311072AE7
:1000F000131C902913101C08123C031982281C0899
:10010000593C031993101C08583C031DA728931D44
:1001100098289311ED309C004A213121FA30572163
:100120001E111E089C004A213121FA305721072A4E
:100130009315ED309C004A213121FA3057211E15CC
:100140001E089C004A213121FA305721072A1C0839
:10015000113C031DAD281312482A1C08143C031D32
:06016000072A93127F2A1A
:100180008C00810183160313C030810508008C00A8
:10019000810183160313C03081050130810483126D
:1001A00003130B110B1DD2288C0BD12808009500CE
:1001B000051008308C00E82015180514151C0510D2
:1001C000950CE8208C0BDC280514E820E8200800BA
:1001D0001D308D00EE2808308D00EE288D0BEE28A6
:1001E0000800960166288E00E13086050E0D1E3946
:1001F000860408009415FD2894118F001621941D83
:1002000086170F080F0EF3200D210F08F3200D2184
:10021000E130860586130613080086160000861254
:10022000080018308E008E0B132908008613141551
:10023000831603131E30860483120313061700006F
:1002400086161121061E1411861211210D21141972
:100250002029061383160313E13086058312031346
:1002600008000B12831603130610051283120313E2
:100270000610051220308C008C0B3C299B01831644
:10028000031306148312031393178B100B16931B7F
:10029000472908008E0008308F0090010E18900A40
:1002A0008E0C8F0B4E291410101C141408008F0094
:1002B000941494185929080028309F00141E6B29A3
:1002C0008030FA2014122030FC209F0B63298030EC
:1002D000FA209F010800C030FA2014162030FC20BC
:0C02E0009F0B6E29C030FA209F0108001F
:10032000131DA229131AA229931AA2291C084A3CB8
:10033000031D9D292F309C00D6291C085A3C031808
:10034000A229072A1C08613C0318B8290E309C0218
:100350001C08613C031CAF2919309C07B8291C08F4
:10036000773C0318B8291C08D23C03191315072A37
:1003700003308A001C0861239C009C080319072A8B
:10038000131A2B2A931A192A1C08603C0318982A5E
:100390001C087A3C031C982A1C089319D229931C28
:1003A000D629D4299318D629E03E9C001C08D720D2
:1003B0001C08083C031DEB291F08031D9F031F0891
:1003C000141EE329403E80389100FA202030FC20A2
:1003D0001108FA20072A1C08093C031DF8291F08E8
:1003E000263C031CF6292030FC209F0A20309C006C
:1003F0001F08273C0318FD295C219F0A1C08FC20CC
:10040000072A5C210D30D7200A30D720003483160C
:10041000031306148312031313130B16080093140B
:1004200000341316142A9316A001A101A201A301FE
:1004300000341C08403C03182B2A1C08463C031CB3
:10044000232A9C16332A1C08603C03182B2A1C08FC
:10045000663C0318332A1C08293C0318072A1C0889
:10046000393C031C072AA008031D3A2AA00A1C08CD
:10047000A100072A200B402AA00A1C08A200072A74
:100480002008023C031D072AA00A1C08A300072A13
:10049000A0080319072A3030A102A202A302A00378
:1004A000031D552A21089C006F2AA003031D5F2A03
:1004B00002308A002108712222079C006F2A21083D
:1004C000023C031C072A02308A0021080A3E7122DE
:1004D000A10022087122A107230821079C00A00186
:1004E000D629820700340A3414341E3428343234B6
:1004F0003C34463450345A3400346434C834A00890
:100500000319072A3030A102A202A11E892A27302E
:10051000A102A21E8D2A2730A202A003031D932A46
:1005200021089C00962A210E22049C00A001D629B5
:10053000931CD6291C080D3C0318D6291D08613CC4
:10054000031CD6291D083C3C0318A92A3D309D02F6
:10055000B22A1D08243C0318B02A23309D02B22A77
:1005600004309D0703308A001D08DA239C00D62939
:1005800005108312031305148316031306140516AE
:100590000113831203130B16831603130130860510
:1005A00083120313861206138613E1308605043086
:1005B000C7200330F3200D210130C7200830F3207D
:1005C0000D210130C7200230F3200D210130C7205A
:1005D0002830FA200C30FA200130FA200830C720E9
:1005E00028309F00F8308B058B1702309E009B014E
:1005F000930194012730910003308A001108273CB1
:100600002F239200D7201208FC20910BFC2A0D30DA
:10061000D7200A30D7200A30D720FF309C004A214B
:100620003121FA305721ED309C004A213121FA3036
:1006300057211E089C004A213121FA305721ED3004
:100640009C004A213121FA3057211E141E089C00BB
:100650004A213121FA305721131B70202C2B82079D
:100660005034493443342034313436344634383409
:10067000343420344134543420344B3465347934A8
:1006800062346F34613472346434203444346534F9
:1006900063346F34643465347234203463346F34BB
:0E06A0006E346E3465346334743465346434FF
:0E06C200820700343934003435343334313497
:1006D000323432340034303438343634343409343B
:1006E000A73400340034112A0F2A0034132A71343D
:1006F0003134003400340034793473346134773465
:10070000323400340034633478346434653434343F
:100710003334003400342034763466347434723424
:100720003534003400346E346234683467347A34DB
:1007300036340034003400346D346A347534373460
:100740003834003400342C346B3469346F34303432
:100750003934003400342E342D346C34F634703493
:100760002734003400340034E4340034FC345E3484
:100770000034003400340F2A012A21340034243498
:100780000034003400343C3430342E3432343534C8
:10079000363438340034003431342B3433342D348F
:1007A0002A343934003408340034003431343734D6
:1007B0003434373482072F34283423342A343B34FA
:1007C0000034003400343D342934003425343A34C4
:1007D0005F3400345C3400343F3440342634003419
:1007E0007B3400345B347E3400342B3400340034EA
:1007F00000345D3400347D340034223400343E341F
:02400E00F13F80
:00000001FF
