:10000000BA01C128A501A400BB172730A3001030F6
:1000100015200330A300E8301520A301643015201B
:10002000A3010A30152024082028A2002508A100D9
:100030002408A000A0202008031DBB13BB1B080040
:10004000303EA7008710071007108316871007108F
:100050000710860183122708BA1849283A30A100F0
:10006000983073203330A6005C201330A100883014
:1000700073205C20643072205C2064307220383041
:1000800048200C30482006304820BA142708492858
:100090003A14A6003A1C57280710033C031C5C289E
:1000A0005C200730A100D0307320031408003A14FC
:1000B000FE3C0319BC2807148714260886003A1052
:1000C00087103230722003140800A301A200FF3011
:1000D000A207031CA307031CBC280330A100DF30C8
:1000E00073206728A101E83EA000A109FC30031C91
:1000F0007C28A00703187928A0076400A10F79289D
:1001000020188228A01C8628000086280800A1014B
:10011000A301A20002308C28A80023082102031D9D
:1001200093282208200204300318013003190230FA
:100130002805031DFF30BC280404031DFF30BC2824
:10014000A501A4011030A600210DA40DA50D2208C3
:10015000A4022308031C230FA5020318B6282208B3
:10016000A40723080318230FA5070310A00DA10D52
:10017000A60BA4282008BC28831303138312640051
:100180000800831607309F00081088100811071117
:10019000871188150816881608178312CA01CB0123
:1001A000CC01CD01CE01CF010130D1000230D2000F
:1001B0000330D3000430D4000530D5000630D6001B
:1001C0000930DB000930DC000530DD000530DE00E1
:1001D0000130DF000130E000D001C030C000C901B3
:1001E0002A30C600D701D801C301C701E101C5010A
:1001F000C201C101E201D901C401DA01C801E30170
:10020000FE308A01212001308A01212050308A01EC
:10021000212052308A0121204F308A01212047308D
:100220008A01212052308A01212041308A01212077
:100230004D308A01212020308A01212042308A015C
:10024000212041308A01212053308A0121204C3065
:100250008A01212049308A01212059308A01212038
:100260004F308A01212052308A0121200530A3001D
:10027000DC308A016620FE308A01212001308A01AB
:10028000212055308A01212059308A012120413016
:100290008A01212052308A01212049308A012120FF
:1002A00020308A01212021308A012120FE308A015C
:1002B0002120C0308A01212053308A012120493079
:1002C0008A01212053308A01212054308A012120C3
:1002D00045308A0121204D308A01212020308A01B9
:1002E00021204B308A01212041308A0121205030C9
:1002F0008A01212041308A0121204C308A012120AD
:1003000049308A01212008108316081083128810B2
:100310008316881083120815831608118312003083
:1003200088190130A00001308A018720B200003016
:10033000081A0130A00001308A018720B400320879
:10034000840034088A019C20B400B5000030881A6B
:100350000130A00001308A018720B600340835043E
:10036000840036088A019C20B600B7000030081BC4
:100370000130A00001308A018720B8003608370418
:10038000840038088A019C20B800B900640038084D
:1003900039048A110A120319122AFE308A01212017
:1003A00001308A0121204C308A01212055308A01F8
:1003B000212054308A01212046308A0121204530F5
:1003C0008A0121204E308A012120FE308A0121201D
:1003D000C0308A0121202A308A01212020308A0160
:1003E000212027308A01212041308A01212020301C
:1003F0008A01212042308A01212041308A012120B6
:1004000053308A01212049308A0121204E308A014F
:10041000212049308A0121205A308A01212064306C
:100420008A01652008108316081083128814831629
:10043000881083120811831608118312003088195E
:100440000130A00001308A018720B2000030081A74
:100450000130A00001308A018720B40032088400F6
:1004600034088A019C20B400B5000030881A01309D
:10047000A00001308A018720B600340835048400CA
:1004800036088A019C20B600B7000030081B0130F6
:10049000A00001308A018720B800360837048400A4
:1004A00038088A019C20B800B90064003808390473
:1004B0008A110A120319A12AFE308A012120013073
:1004C0008A0121204C308A01212055308A012120C7
:1004D00054308A01212046308A01212045308A018A
:1004E00021204E308A012120FE308A012120C03097
:1004F0008A0121202A308A01212020308A012120EE
:1005000027308A01212041308A01212020308A01B0
:10051000212042308A01212041308A01212053309C
:100520008A01212049308A0121204E308A01212070
:1005300049308A0121205A308A01212064308A0101
:100540006520C301C701E101C501C201C101E2018A
:10055000D901C401DA01C801E301081483160810A7
:1005600083128810831688108312081183160811CD
:100570008312003088190130A00001308A018720E1
:10058000B2000030081A0130A00001308A01872033
:10059000B4003208840034088A019C20B400B500FD
:1005A0000030881A0130A00001308A018720B6008F
:1005B00034083504840036088A019C20B600B70050
:1005C0006400360837048A110A1203192C2BFE30F6
:1005D0008A01212001308A0121204C308A0121200A
:1005E00055308A01212054308A01212046308A0169
:1005F000212045308A0121204E308A012120FE3001
:100600008A012120C0308A0121202A308A0121203C
:1006100020308A01212027308A01212041308A019F
:10062000212020308A01212042308A0121204130BE
:100630008A01212053308A01212049308A0121205A
:100640004E308A01212049308A0121205A308A0106
:10065000212064308A01652064008A110A12081F73
:10066000342B8A110A12392BFA308A0165208A014B
:100670003B29FE308A01212001308A01212053309C
:100680008A01212049308A01212046308A01212017
:1006900052308A01212045308A01212059308A01B7
:1006A000212049308A01212020308A012120473031
:1006B0008A01212049308A01212052308A012120DB
:1006C00049308A0121204E308A01212049308A0197
:1006D00021205A308A0121203A308A01212001301C
:1006E000A3002C308A016620081483160810831298
:1006F000881083168810831208118316081183123C
:1007000064008A110A12881D8B2B0130C30001304E
:10071000C9008A01802B64008A110A12081E962BD8
:100720000430C5000130C9008A018B2B64008A1196
:100730000A12881EA12B0730E2000130C9008A018D
:10074000962B64008A110A12081FAA2B1430E300AA
:100750008A01A12B081083160810831288148316AF
:1007600088108312081183160811831264008A11FD
:100770000A12881DC12B0230C7000130C9008A014E
:10078000B62B64008A110A12081ECC2B0530C20059
:100790000130C9008A01C12B64008A110A12881E27
:1007A000D72B0830D9000130C9008A01CC2B640056
:1007B0008A110A12081FE12BDA010130C9008A01EF
:1007C000D72B081083160810831288108316881000
:1007D0008312081583160811831264008A110A1205
:1007E000881DF82B0330E1000130C9008A01ED2B90
:1007F00064008A110A12081E032C0630C100013061
:10080000C9008A01F82B64008A110A12881E0E2C76
:100810000930C4000130C9008A01032C64008A1128
:100820000A12081F192C0130C8000130C9008A01C2
:100830000E2C64004908013C8A110A12031D252C64
:10084000D70AC9018A110A12272C8A01742B640065
:100850005708073C8A110A12031D5C2CD701FE3091
:100860008A012120C0308A01212020308A012120E4
:1008700020308A01212020308A01212020308A0165
:10088000212020308A01212020308A01212020309F
:100890008A01212020308A01212020308A01212054
:1008A00020308A01212020308A01212020308A0135
:1008B000212020308A0121206400C63040028A11A4
:1008C0000A12031C652CC530C0006400BF30400212
:1008D0008A110A1203186E2CBF30C000BF305707B0
:1008E000C00064004008C03C8A110A1203199E2C03
:1008F00064004008C13C8A110A120319FB2C6400F1
:100900004008C23C8A110A120319582D640040089D
:10091000C33C8A110A120319B52D64004008C43C77
:100920008A110A120319122E64004008C53C8A116C
:100930000A1203196F2E8A110A12CC2E640001309C
:1009400043028A110A12031CA72C4308CA00640040
:10095000013047028A110A12031CB02C4708CA0052
:100960006400013061028A110A12031CB92C61086B
:10097000CA006400013045028A110A12031CC22C0D
:100980004508CA006400013042028A110A12031CA1
:10099000CB2C4208CA006400013041028A110A12BD
:1009A000031CD42C4108CA006400013062028A1181
:1009B0000A12031CDD2C6208CA00640001305902CF
:1009C0008A110A12031CE62C5908CA00640001307F
:1009D00044028A110A12031CEF2C4408CA00640066
:1009E00001305A028A110A12031CF82C5A08CA0054
:1009F0008A110A12CC2E6400013043028A110A12B5
:100A0000031C042D4308CB006400013047028A1107
:100A10000A12031C0D2D4708CB006400013061024F
:100A20008A110A12031C162D6108CB0064000130E4
:100A300045028A110A12031C1F2D4508CB006400D1
:100A4000013042028A110A12031C282D4208CB00F1
:100A50006400013041028A110A12031C312D410841
:100A6000CB006400013062028A110A12031C3A2D85
:100A70006208CB006400013059028A110A12031C7B
:100A8000432D5908CB006400013044028A110A1238
:100A9000031C4C2D4408CB00640001305A028A111B
:100AA0000A12031C552D5A08CB008A110A12CC2EAB
:100AB0006400013043028A110A12031C612D4308AD
:100AC000CC006400013047028A110A12031C6A2D0F
:100AD0004708CC006400013061028A110A12031C2D
:100AE000732D6108CC006400013045028A110A129E
:100AF000031C7C2D4508CC006400013042028A11A1
:100B00000A12031C852D4208CC006400013041020A
:100B10008A110A12031C8E2D4108CC00640001309A
:100B200062028A110A12031C972D6208CC0064002D
:100B3000013059028A110A12031CA02D5908CC0059
:100B40006400013044028A110A12031CA92D4408D2
:100B5000CC00640001305A028A110A12031CB22D23
:100B60005A08CC008A110A12CC2E640001304302CC
:100B70008A110A12031CBE2D4308CD006400013007
:100B800047028A110A12031CC72D4708CD006400D2
:100B9000013061028A110A12031CD02D6108CD00B8
:100BA0006400013045028A110A12031CD92D450840
:100BB000CD006400013042028A110A12031CE22DAA
:100BC0004208CD006400013041028A110A12031C60
:100BD000EB2D4108CD006400013062028A110A1237
:100BE000031CF42D6208CD006400013059028A1103
:100BF0000A12031CFD2D5908CD0064000130440287
:100C00008A110A12031C062E4408CD00640001302C
:100C10005A028A110A12031C0F2E5A08CD008A119B
:100C20000A12CC2E6400013043028A110A12031CFE
:100C30001B2E4308CE006400013047028A110A12BD
:100C4000031C242E4708CE006400013061028A1183
:100C50000A12031C2D2E6108CE00640001304502EB
:100C60008A110A12031C362E4508CE00640001309A
:100C700042028A110A12031C3F2E4208CE00640071
:100C8000013041028A110A12031C482E4108CE008D
:100C90006400013062028A110A12031C512E62089C
:100CA000CE006400013059028A110A12031C5A2E28
:100CB0005908CE006400013044028A110A12031C54
:100CC000632E4408CE00640001305A028A110A12D1
:100CD000031C6C2E5A08CE008A110A12CC2E640016
:100CE000013043028A110A12031C782E4308CF00F8
:100CF0006400013047028A110A12031C812E470842
:100D0000CF006400013061028A110A12031C8A2E8E
:100D10006108CF006400013045028A110A12031CE9
:100D2000932E4508CF006400013042028A110A1256
:100D3000031C9C2E4208CF006400013041028A113E
:100D40000A12031CA52E4108CF0064000130620284
:100D50008A110A12031CAE2E6208CF006400013013
:100D600059028A110A12031CB72E5908CF006400D9
:100D7000013044028A110A12031CC02E4408CF001D
:100D8000640001305A028A110A12031CC92E5A0843
:100D9000CF008A110A12CC2E64004808013C8A1147
:100DA0000A12031DD62E8A110A12E12EFE308A0184
:100DB000212040088A01212046088A0121208A0139
:100DC000742BFE308A01212001308A0121204B3012
:100DD0008A0121204F308A0121204E308A012120B2
:100DE00054308A01212052308A0121204F308A015B
:100DF00021204C308A01212020308A0121204530D9
:100E00008A01212044308A01212049308A01212091
:100E10004C308A01212049308A01212059308A0131
:100E200021204F308A01212052308A012120D70110
:100E3000FE308A012120C0308A0121204C308A01F5
:100E4000212055308A01212054308A01212046304A
:100E50008A01212045308A0121204E308A0121203B
:100E600020308A01212042308A01212045308A0128
:100E700021204B308A0121204C308A01212045302D
:100E80008A01212059308A01212049308A012120FC
:100E90004E308A01212021308A01212064004A0835
:100EA00051028A110A12031D5B2F8A110A125E2F4A
:100EB0008A110A125E2F8A110A12B12F64004B08A0
:100EC00052028A110A12031D6B2F8A110A126E2F09
:100ED0008A110A126E2F8A110A12B12F64004C086F
:100EE00053028A110A12031D7B2F8A110A127E2FC8
:100EF0008A110A127E2F8A110A12B12F64004D083E
:100F000054028A110A12031D8B2F8A110A128E2F86
:100F10008A110A128E2F8A110A12B12F64004E080C
:100F200055028A110A12031D9B2F8A110A129E2F45
:100F30008A110A129E2F8A110A12B12F64004F08DB
:100F400056028A110A12031DAB2F8A110A12AE2F04
:100F50008A110A12AE2F8A110A12B12F8A150A12AB
:100F6000772DD80AFE308A01212001308A01212004
:100F700059308A01212041308A0121204E308A01D6
:100F800021204C308A01212049308A012120533010
:100F90008A01212020308A01212053308A0121201A
:100FA00049308A01212046308A01212052308A01AD
:100FB000212045308A01212021308A012120FE3064
:100FC0008A012120C0308A01212044308A01212059
:100FD00045308A0121204E308A01212045308A0186
:100FE00021204D308A01212045308A0121203A30CC
:100FF0008A01212058088A0102200130A300F43020
:101000008A01662064005808033C8A150A12031DF1
:101010000C288A150A121A28C301C701E101C5016B
:10102000C201C101E201D901C401DA01C801E30131
:101030008A01392BFE308A01212001308A012120CA
:1010400053308A01212049308A01212046308A010B
:10105000212052308A01212045308A012120593037
:101060008A01212049308A01212020308A01212053
:1010700059308A01212041308A0121204E308A01D5
:1010800021204C308A01212049308A01212053300F
:101090008A012120FE308A012120C0308A012120CE
:1010A00047308A01212049308A01212052308A01AB
:1010B000212044308A01212049308A0121204E30EC
:1010C0008A01212049308A0121205A308A012120B9
:1010D00021308A0121208715831687118312013060
:1010E000A300F4308A016620FE308A0121200130FD
:1010F0008A01212053308A01212049308A01212090
:1011000053308A01212054308A01212045308A0140
:1011100021204D308A01212020308A0121205330A6
:101120008A01212049308A01212046308A0121206C
:1011300052308A01212045308A01212053308A0112
:10114000212049308A0121203A308A0121200130B2
:10115000A3002C308A016620C301C701E101C5014B
:10116000C201C101E201D901C401DA01C801E301F0
:10117000D80108148316081083128810831688106B
:101180008312081183160811831264008A150A124B
:10119000881DD1280130C3000130C9008A150A1208
:1011A000C52864008A150A12081EDD280430C5000F
:1011B0000130C9008A150A12D12864008A150A1262
:1011C000881EE9280730E2000130C9008A150A129A
:1011D000DD2864008A150A12081FF3281430E30082
:1011E0008A150A12E9280810831608108312881439
:1011F0008316881083120811831608118312640065
:101200008A150A12881D0B290230C7000130C90057
:101210008A150A12FF2864008A150A12081E172967
:101220000530C2000130C9008A150A120B2964007A
:101230008A150A12881E23290830D9000130C900F6
:101240008A150A12172964008A150A12081F2E2906
:10125000DA010130C9008A150A1223290810831601
:1012600008108312881083168810831208158316BD
:101270000811831264008A150A12881D462903305A
:10128000E1000130C9008A150A123A2964008A1562
:101290000A12081E52290630C1000130C9008A1501
:1012A0000A12462964008A150A12881E5E2909302E
:1012B000C4000130C9008A150A12522964008A1537
:1012C0000A12081F6A290130C8000130C9008A15B6
:1012D0000A125E2964004908013C8A150A12031D9E
:1012E0007629D70AC9018A150A1279298A150A129C
:1012F000AC2864005708073C8A150A12031DAE2962
:10130000D701FE308A012120C0308A0121202030FF
:101310008A01212020308A01212020308A012120C9
:1013200020308A01212020308A01212020308A01AA
:10133000212020308A01212020308A0121202030E4
:101340008A01212020308A01212020308A01212099
:1013500020308A01212020308A0121206400C630FB
:1013600040028A150A12031CB729C530C000640068
:10137000BF3040028A150A120318C029BF30C000CE
:10138000BF305707C00064004008C03C8A150A12ED
:101390000319F02964004008C13C8A150A12031998
:1013A0004D2A64004008C23C8A150A120319AA2A71
:1013B00064004008C33C8A150A120319072B640015
:1013C0004008C43C8A150A120319642B64004008C3
:1013D000C53C8A150A120319C12B8A150A121E2C44
:1013E0006400013043028A150A12031CF9294308DC
:1013F000CA006400013047028A150A12031C022A3F
:101400004708CA006400013061028A150A12031CF1
:101410000B2A6108CA006400013045028A150A12CD
:10142000031C142A4508CA006400013042028A15D0
:101430000A12031C1D2A4208CA006400013041023E
:101440008A150A12031C262A4108CA0064000130CA
:1014500062028A150A12031C2F2A6208CA0064005D
:10146000013059028A150A12031C382A5908CA0089
:101470006400013044028A150A12031C412A440800
:10148000CA00640001305A028A150A12031C4A2A53
:101490005A08CA008A150A121E2C64000130430241
:1014A0008A150A12031C562A4308CB006400013037
:1014B00047028A150A12031C5F2A4708CB00640002
:1014C000013061028A150A12031C682A6108CB00E8
:1014D0006400013045028A150A12031C712A45086E
:1014E000CB006400013042028A150A12031C7A2ADA
:1014F0004208CB006400013041028A150A12031C25
:10150000832A4108CB006400013062028A150A1266
:10151000031C8C2A6208CB006400013059028A1532
:101520000A12031C952A5908CB00640001304402BA
:101530008A150A12031C9E2A4408CB00640001305D
:101540005A028A150A12031CA72A5A08CB008A15C8
:101550000A121E2C6400013043028A150A12031C71
:10156000B32A4308CC006400013047028A150A12EE
:10157000031CBC2A4708CC006400013061028A15B4
:101580000A12031CC52A6108CC0064000130450220
:101590008A150A12031CCE2A4508CC0064000130CB
:1015A00042028A150A12031CD72A4208CC006400A2
:1015B000013041028A150A12031CE02A4108CC00BE
:1015C0006400013062028A150A12031CE92A6208CB
:1015D000CC006400013059028A150A12031CF22A59
:1015E0005908CC006400013044028A150A12031C19
:1015F000FB2A4408CC00640001305A028A150A1202
:10160000031C042B5A08CC008A150A121E2C6400F5
:10161000013043028A150A12031C102B4308CD0027
:101620006400013047028A150A12031C192B47086F
:10163000CD006400013061028A150A12031C222BBE
:101640006108CD006400013045028A150A12031CAE
:101650002B2B4508CD006400013042028A150A1286
:10166000031C342B4208CD006400013041028A156E
:101670000A12031C3D2B4108CD00640001306202B8
:101680008A150A12031C462B6208CD006400013043
:1016900059028A150A12031C4F2B5908CD00640009
:1016A000013044028A150A12031C582B4408CD004D
:1016B000640001305A028A150A12031C612B5A0871
:1016C000CD008A150A121E2C6400013043028A15CF
:1016D0000A12031C6D2B4308CE0064000130470240
:1016E0008A150A12031C762B4708CE0064000130CD
:1016F00061028A150A12031C7F2B6108CE00640068
:10170000013045028A150A12031C882B4508CE00B9
:101710006400013042028A150A12031C912B420810
:10172000CE006400013041028A150A12031C9A2B74
:101730004108CE006400013062028A150A12031CBF
:10174000A32B6208CE006400013059028A150A12E8
:10175000031CAC2B5908CE006400013044028A15EA
:101760000A12031CB52B4408CE00640001305A0253
:101770008A150A12031CBE2B5A08CE008A150A12BB
:101780001E2C6400013043028A150A12031CCA2B66
:101790004308CF006400013047028A150A12031C77
:1017A000D32B4708CF006400013061028A150A126A
:1017B000031CDC2B6108CF006400013045028A1550
:1017C0000A12031CE52B4508CF00640001304202D9
:1017D0008A150A12031CEE2B4208CF006400013068
:1017E00041028A150A12031CF72B4108CF0064003E
:1017F000013062028A150A12031C002C6208CF0015
:101800006400013059028A150A12031C092C590878
:10181000CF006400013044028A150A12031C122C06
:101820004408CF00640001305A028A150A12031CD2
:101830001B2C5A08CF008A150A121E2C6400480877
:10184000013C8A150A12031D282C8A150A12342C11
:10185000FE308A01212040088A01212046088A01A1
:1018600021208A150A12AC28FE308A01212001307D
:101870008A0121204B308A0121204F308A0121200A
:101880004E308A01212054308A01212052308A01B1
:1018900021204F308A0121204C308A012120203024
:1018A0008A01212045308A01212044308A012120EB
:1018B00049308A0121204C308A01212049308A0197
:1018C000212059308A0121204F308A0121205230B5
:1018D0008A012120D701FE308A012120C0308A01EF
:1018E00021204C308A01212055308A01212054309A
:1018F0008A01212046308A01212045308A01212099
:101900004E308A01212020308A01212042308A0174
:10191000212045308A0121204B308A0121204C3082
:101920008A01212045308A01212059308A01212055
:1019300049308A0121204E308A01212021308A013C
:10194000212064004A085B028A150A12031DAE2C8E
:101950008A150A12B12C8A150A12B12C8A150A129C
:101960003F2D64004B085C028A150A12031DBE2C31
:101970008A150A12C12C8A150A12C12C8A150A125C
:101980003F2D64004C085D028A150A12031DCE2CFF
:101990008A150A12D12C8A150A12D12C8A150A121C
:1019A0003F2D64004D085E028A150A12031DDE2CCD
:1019B0008A150A12E12C8A150A12E12C8A150A12DC
:1019C0003F2D64004E085F028A150A12031DEE2C9B
:1019D0008A150A12F12C8A150A12F12C8A150A129C
:1019E0003F2D64004F0860028A150A12031DFE2C69
:1019F0008A150A12012D8A150A12012D8A150A125A
:101A00003F2DFE308A01212001308A0121205330F0
:101A10008A01212049308A01212046308A01212073
:101A200052308A01212045308A01212020308A014C
:101A3000212044308A0121204F308A012120473063
:101A40008A01212052308A01212055308A0121202B
:101A50004C308A01212041308A0121204E308A01F8
:101A6000212044308A01212049308A01212003307D
:101A7000A300E8308A0166208A150A12772DFE300D
:101A80008A01212001308A01212059308A01212038
:101A900041308A0121204E308A0121204C308A01B8
:101AA000212049308A01212053308A012120203011
:101AB0008A01212053308A01212049308A012120C6
:101AC00046308A01212052308A01212045308A0186
:101AD000212021308A0121200330A300E8308A012F
:101AE00066208A150A1274288A150A121A28871184
:101AF000831687118312071583160711FE30831290
:101B00008A012120C0308A01212020308A01212031
:101B100020308A01212020308A01212020308A01B2
:101B2000212020308A01212020308A0121202030EC
:101B30008A01212020308A01212020308A012120A1
:101B400020308A01212020308A01212020308A0182
:101B5000212020308A01212020308A0121202030BC
:101B60008A01212020308A01212020308A01212071
:101B7000FE308A01212001308A01212053308A0160
:101B8000212049308A01212046308A01212052300B
:101B90008A01212045308A01212020308A0121201C
:101BA00044308A0121204F308A01212047308A01A8
:101BB000212052308A01212055308A0121204C30C9
:101BC0008A01212041308A0121204E308A012120C2
:101BD00044308A01212049308A0121200130A300AC
:101BE000F4308A016620FE308A01212001308A010A
:101BF000212053308A01212049308A01212053308D
:101C00008A01212054308A01212045308A01212077
:101C10004D308A01212020308A01212041308A0163
:101C2000212043308A01212049308A0121204C3073
:101C30008A01212044308A01212049308A01212053
:101C40000130A300F4308A016620FE308A01212091
:101C500001308A01212048308A0121204F308A0139
:101C6000212053308A01212047308A01212045302C
:101C70008A0121204C308A01212044308A01212010
:101C800049308A0121204E308A01212049308A01C1
:101C900021205A308A0121200330A300E8308A0134
:101CA0006620071183160711FE3083128A01212056
:101CB00001308A01212053308A01212049308A01D4
:101CC000212053308A01212054308A0121204530BF
:101CD0008A0121204D308A012120FE308A012120F5
:101CE000C0308A0121204B308A01212041308A01F5
:101CF000212050308A01212041308A012120543096
:101D00008A01212049308A0121204C308A0121207A
:101D100049308A01212059308A0121204F308A011F
:101D2000212052308A0121200130A300F4308A01A1
:101D30006620FE308A01212001308A0121202030D6
:101D40008A01212020308A01212020308A0121208F
:101D500020308A01212020308A01212020308A0170
:101D6000212020308A01212020308A0121202030AA
:101D70008A01212020308A01212020308A0121205F
:101D800020308A01212020308A01212020308A0140
:101D9000212020308A01212020308A012120FE309C
:101DA0008A012120C0308A01212020308A0121208F
:101DB00020308A01212020308A01212020308A0110
:101DC000212020308A01212020308A01212020304A
:101DD0008A01212020308A01212020308A012120FF
:101DE00020308A01212020308A01212020308A01E0
:101DF000212020308A01212020308A01212020301A
:101E00008A01212020308A0121208A013B29630098
:061E10008A150A12072FDB
:02400E00753FFC
:00000001FF
