:10000000830100308A00A928F50003088301AB00B2
:100010000408AC007008AF007108B0000B1D112877
:10002000122893288312031381010B112708260439
:1000300003191B281C282E28861406118611A608D1
:100040000319A703A603FF30A100A201A301A80181
:10005000A80A0230A900FF30AA00932883120313D4
:10006000A5080319342835288D282830F1002008E8
:10007000C42770080038031D3E283F286728AA03BC
:100080002A0A0319442845285828A808031949288A
:100090004A2850282908213E84008313800A5728C3
:1000A000831203132908213E8400831380036728E9
:1000B00083120313A808003003190130A800A90A0D
:1000C0002908033A031D652866286728A9018312B9
:1000D000031320082107A40003186F287128861431
:1000E000722886108312031322082007A400031825
:1000F0007A287C2806157D2806118312031323080D
:100100002007A400031885288728861588288611CB
:1001100083120313A00AA5039328E8308312031364
:10012000A600FD30A7008B1C962897289C28C83075
:1001300083120313A5008B10031383122F08F00002
:100140003008F1002C0884002B088300F50E750E92
:100150000900203084002530BB2083010730AE0029
:10016000FA30AD00253084002B30BF208301B02F42
:1001700004068001840A040603190034B828F0003C
:10018000CA208000840A0408700603190034C028BD
:100190008312AD00AE1BD5282E1BDD282E088A0049
:1001A0002D08AD0A0319AE0A820083132E18831797
:0A01B0002D08AD0A840000080800C5
:100F6000F130831603138600FF308312A100A20123
:100F7000A3018101C830831681008B1601130B1663
:100F80008B17C22FC22FA928F000F4010310FD30E7
:100F90007107031CEB2FF301F0307105031DD32FF4
:100FA0000430F300F10EF2010310F30AF10D031CFB
:100FB000D52FF10C710870020318F000F20DF30B3D
:100FC000D92FF41FE52FF209F20A7208F41F080066
:100FD000F009F00A0800F10C0318F42FF10C031CBF
:100FE000F0010310F00C031C03107008F200F00174
:100FF000F00DE12FC834E834FD3401340234FF34FD
:02400E00EA3F87
:00000001FF
