:1000000000308A0091280000153084000008031990
:10001000182801308D008C018C0B0C288D0B0B28BF
:100020004A308C008C0B122800000000800B09283D
:1000300000348316861183128615053094004130F2
:1000400095000420940B1F288316861183128611B5
:100050006430950004208316861183128615823041
:100060009500042083168611831286116430950052
:100070000420831686118312861502309400C8303E
:1000800095000420940B3F28831686118312861155
:10009000003483168611831286154B309500042098
:1000A00083168611831286110034831686118312FB
:1000B000861503309400FA3095000420940B5B28D9
:1000C000831686118312861102309400FA3095004F
:1000D0000420940B6628831686118312861503303C
:1000E0009400FA3095000420940B71288316861131
:1000F0008312861102309400FA3095000420940B8C
:100100007C28831686118312861503309400FA30FA
:1001100095000420940B872883168611831286117C
:10012000142984011F30830504309400FA309500AF
:100130000420940B962819209001831686168312AA
:10014000861E1529831606128312061604309400A3
:10015000FA3095000420940BA82849208F019201C1
:100160000130900001301002031D0929C8300F0230
:100170000318092964309500042015301202031C6D
:10018000C328492092018F0A920A9101831605150E
:1001900000308312051901300038031D0829013091
:1001A000910093010A3013020318E72883160515FE
:1001B00000308312051901308C0001300C02031D40
:1001C000E22891010A3095000420930AD2288F0A70
:1001D00091080319082983160612831206120230A9
:1001E0009000930108301302031808296430950029
:1001F00004208316051500308312051901300038DC
:10020000031906290330900008309300930AF2285E
:10021000B228831606128312061202301002031D42
:0E022000132919201429552890019D286300E8
:02400E00F93F78
:00000001FF
;PIC16F84
