:10000000102983160030860083120030940095007A
:10001000960098009A009E008600043099001129ED
:100020009A14990B9A109A1C57209A181A209A1809
:1000300044200800960A3D3016069E001A151E0B35
:100040001A1100301A1996009A151A1D9A119A1948
:10005000950A3D3015069E001A151E0B1A11003028
:100060001A1995009A151A1D9A119A19940A19309D
:1000700014069E001A151E0B1A1100301A1994004E
:10008000952004309900080000309B0000309C004F
:10009000E6309D009B0B4A289C0B4A289C0B4E285F
:1000A0009D0B4E28C2309D009D0B54280800003047
:1000B0009B0000309C00E6309D009B0B5D289C0B54
:1000C0005D289C0B61289D0B6128FA309D009D0BDB
:1000D00067280800851D7128051D7C28851C872838
:1000E0001129960A3D3016069E001A151E0B1A118C
:1000F00000301A1996009228950A3D3015069E0088
:100100001A151E0B1A1100301A1995009228940A1C
:10011000193014069E001A151E0B1A1100301A19F8
:10012000940092289520572011291810941B181418
:100130009810951B98141811961B181598131808E9
:1001400086009817180886001810141B18149810A9
:10015000151B98141811161B1815981318088600EB
:100160009817180886001810941A18149810951AE1
:1001700098141811961A18159813180886009817CD
:10018000180886001810141A18149810151A9814C4
:100190001811161A181598131808860098171808B9
:1001A000860018109419181498109519981418119D
:1001B00096191815981318088600981718088600BD
:1001C00018101419181498101519981418111619D4
:1001D0001815981318088600981718088600181024
:1001E0009418181498109518981418119618181532
:1001F0009813180886009817180886001810141805
:100200001814981015189814181116181815981312
:100210001808860098171808860000308600080025
:0A0220000120051C6A20102011299E
:02400E00F23F7F
:00000001FF
