:020000040000FA
:100000003EEF00F0036A026EFF0E0226D8A0032620
:10001000D8A03BEF00F0030E016EE60E02D8F4D735
:10002000016AFC0F006E011ED8A006D0FF0E000072
:100030000026D8B0FCD700260400013EF7D71200F6
:10004000D89000360136FF0FFBE200503BEF00F086
:10005000026E010E00D0086E0350015C02E10250F6
:10006000005C040ED8B0010ED8B4020E0814D8A457
:10007000FF0E3BEF00F0000104001200070EC16EFE
:10008000926A806A936A816A946A826A2B6A2F6A8A
:10009000010E2A6E1E6A1F6A206A216A95EC01F021
:1000A00026C027F02F2A010E286E04002850275C56
:1000B000D8A07BEF00F095EC01F0E2EC01F02E6AA5
:1000C00004002E50305CD8A077EF00F0DAEC03F09B
:1000D000242A2050310FE96E000E2120EA6E2CC038
:1000E000EFFF202AD8B4212A2E2AD8A4E9D72F2A14
:1000F000282AD8A4DAD72F6A7EEF00F088EC01F026
:10010000010E1C6E1D6A1CC000F01DC001F0036AC8
:10011000030E9EDFD8A498EF00F09CEC00F0030ED5
:10012000036EE80E70DF1C2AD8B41D2AD8A4EBD7C2
:1001300088EC01F00DEF01F0010E226E236A22C05F
:1001400000F023C001F0036A0A0E82DFD8A408EF92
:1001500001F0010E2E6E04000B0E2E5CD8B0D1EF14
:1001600000F0286A0400100E285CD8B0CDEF00F033
:100170002050310FE96E000E2120EA6EEFCF82FF92
:1001800028C080FF2AC081FF320E4ADF816A202A00
:10019000D8B4212A282AD8A4E5D72A2A2E2AD8A4D6
:1001A000DAD7010E2A6E010E2E6E04000B0E2E5CA5
:1001B000D8B0FFEF00F0286A0400100E285CD8B019
:1001C000FBEF00F02050310FE96E000E2120EA6EA7
:1001D000EFCF82FF28C080FF2AC000F0016A040E22
:1001E00032DF816E320E1CDF816A202AD8B4212AC8
:1001F000282AD8A4E1D72A2A2E2AD8A4D6D7206A1A
:10020000216A010E2A6E222AD8B4232AD8A497D7AD
:10021000010E2A6E1E6A1F6A1200010E226E236AE8
:1002200022C000F023C001F0010E036E400E10DF6B
:10023000D8A47FEF01F0010E2E6E04000B0E2E5C91
:10024000D8B043EF01F0286A0400100E285CD8B043
:100250003FEF01F02050310FE96E000E2120EA6ED1
:10026000EFCF82FF28C080FF2AC081FF640ED8DE56
:10027000816A202AD8B4212A282AD8A4E5D72A2A94
:100280002E2AD8A4DAD7010E2A6E010E2E6E040093
:100290000B0E2E5CD8B071EF01F0286A0400100E2E
:1002A000285CD8B06DEF01F02050310FE96E000EE0
:1002B0002120EA6EEFCF82FF28C080FF2AC000F025
:1002C000016A040EC0DE816E640EAADE816A202AF5
:1002D000D8B4212A282AD8A4E1D72A2A2E2AD8A499
:1002E000D6D71E2AD8B41F2A1EC020F01FC021F066
:1002F000010E2A6E222AD8B4232AD8A491D7010E3F
:100300002A6E1E6A1F6A206A216A88EC01F0F6D6FE
:10031000010E2D6E0400040E2D5CD8B094EF01F098
:100320000BDF2D2AD8A4F6D712002F50F66E350811
:10033000D8A0E1EF01F0F76AF86AD890F636F73600
:10034000560EF626030EF722000EF8220800F5CF0F
:1003500026F0E1EF01F0350C200C500C690C430C39
:10036000500C520C4F0C4A0C450C200C4F0C520CEC
:10037000470C200C540C750C520C4B0C690C590C8E
:10038000450C4E0C690C4E0C200C450C4E0C200CF0
:10039000200C200C420C750C590C750C4B0C200CCD
:1003A000450C4C0C450C4B0C540C520C4F0C4E0C89
:1003B000690C4B0C200C460C4F0C520C550C4D0C80
:1003C000550C1200040026504108D8A4EEEF01F0AD
:1003D000246A050E306E1200DAEF03F00400265096
:1003E0004208D8A4FBEF01F0060E246E050E306E15
:1003F0001200DAEF03F0040026504308D8A408EFF7
:1004000002F00C0E246E050E306E1200DAEF03F0CF
:10041000040026504408D8A415EF02F0120E246EF2
:10042000050E306E1200DAEF03F004002650450886
:10043000D8A422EF02F0180E246E050E306E1200C2
:10044000DAEF03F0040026504608D8A42FEF02F09C
:100450001E0E246E050E306E1200DAEF03F004005B
:1004600026504708D8A43CEF02F0240E246E050E57
:10047000306E1200DAEF03F0040026504808D8A4CA
:1004800049EF02F02A0E246E050E306E1200DAEFEC
:1004900003F0040026504908D8A456EF02F0300EAD
:1004A000246E030E306E1200DAEF03F004002650C3
:1004B0006908D8A463EF02F0340E246E030E306E88
:1004C0001200DAEF03F0040026504A08D8A470EFB7
:1004D00002F0380E246E050E306E1200DAEF03F0D3
:1004E000040026504B08D8A47DEF02F03E0E246E87
:1004F000050E306E1200DAEF03F0040026504C08AF
:10050000D8A48AEF02F0440E246E050E306E12005D
:10051000DAEF03F0040026504D08D8A497EF02F05C
:100520004A0E246E050E306E1200DAEF03F004005E
:1005300026504E08D8A4A4EF02F0500E246E050EEB
:10054000306E1200DAEF03F0040026504F08D8A4F2
:10055000B1EF02F0560E246E050E306E1200DAEF87
:1005600003F0040026505008D8A4BEEF02F05C0E41
:10057000246E050E306E1200DAEF03F004002650F0
:100580007108D8A4CBEF02F0620E246E050E306E17
:100590001200DAEF03F0040026505208D8A4D8EF76
:1005A00002F0680E246E050E306E1200DAEF03F0D2
:1005B000040026505308D8A4E5EF02F06E0E246E16
:1005C000050E306E1200DAEF03F0040026505408D6
:1005D000D8A4F2EF02F0740E246E050E306E1200F5
:1005E000DAEF03F0040026505508D8A4FFEF02F01C
:1005F0007A0E246E050E306E1200DAEF03F004005E
:1006000026507508D8A40CEF03F0800E246E050E5A
:10061000306E1200DAEF03F0040026505608D8A41A
:1006200019EF03F0860E246E050E306E1200DAEF1D
:1006300003F0040026505708D8A426EF03F08C0ED0
:10064000246E050E306E1200DAEF03F0040026501F
:100650005808D8A433EF03F0920E246E050E306EC6
:100660001200DAEF03F0040026505908D8A440EF36
:1006700003F0980E246E050E306E1200DAEF03F0D0
:10068000040026505A08D8A44DEF03F09E0E246EA5
:10069000050E306E1200DAEF03F004002650200839
:1006A000D8A45AEF03F0A40E246E050E306E12008B
:1006B000DAEF03F0040026503008D8A467EF03F007
:1006C000AA0E246E050E306E1200DAEF03F004005D
:1006D00026503108D8A474EF03F0B00E246E030E38
:1006E000306E1200DAEF03F0040026503208D8A46E
:1006F00081EF03F0B40E246E050E306E1200DAEFB7
:1007000003F0040026503308D8A48EEF03F0BA0E8D
:10071000246E050E306E1200DAEF03F0040026504E
:100720003408D8A49BEF03F0C00E246E050E306E83
:100730001200DAEF03F0040026503508D8A4A8EF21
:1007400003F0C60E246E050E306E1200DAEF03F0D1
:10075000040026503608D8A4B5EF03F0CC0E246E62
:10076000050E306E1200DAEF03F004002650370851
:10077000D8A4C2EF03F0D20E246E050E306E120024
:10078000DAEF03F0040026503808D8A4CFEF03F0C6
:10079000D80E246E050E306E1200DAEF03F004005E
:1007A00026503908D8A4DAEF03F0DE0E246E050EC9
:1007B000306E12002450F66EE308D8A0D4EF04F097
:1007C000F76AF86AD890F636F736E00EF626070E86
:1007D000F722000EF8220800F5CF2CF0D4EF04F039
:1007E0003F0C480C480C480C3F0C000C7F0C490C8B
:1007F000490C490C360C000C3E0C410C410C410CD0
:10080000220C000C7F0C410C410C410C3E0C000CE6
:100810007F0C490C490C490C410C000C7F0C480C16
:10082000480C480C400C000C3E0C410C490C490C87
:100830002E0C000C7F0C080C080C080C7F0C000C14
:10084000410C7F0C410C000C110C5F0C110C000CC6
:10085000020C010C410C7E0C400C000C7F0C080CAF
:10086000140C220C410C000C7F0C010C010C010C2F
:10087000010C000C7F0C200C180C200C7F0C000CC1
:100880007F0C100C080C040C7F0C000C3E0C410C6F
:10089000410C410C3E0C000C7F0C480C480C480CE1
:1008A000300C000C3E0C410C450C420C3D0C000C75
:1008B0007F0C480C4C0C4A0C310C000C320C490CCF
:1008C000490C490C260C000C400C400C7F0C400CD1
:1008D000400C000C7E0C010C010C010C7E0C000C79
:1008E0001E0C410C010C410C1E0C000C7C0C020C6B
:1008F000010C020C7C0C000C7E0C010C0E0C010C8B
:100900007E0C000C630C140C080C140C630C000C13
:10091000700C080C070C080C700C000C430C450CF8
:10092000490C510C610C000C000C000C000C000C6C
:10093000000C000C3E0C450C490C510C3E0C000CFC
:10094000210C7F0C010C000C210C430C450C490CB4
:10095000310C000C420C410C510C690C460C000C83
:100960000C0C140C240C7F0C040C000C720C510C9D
:10097000510C510C4E0C000C1E0C290C490C490C4E
:10098000060C000C400C470C480C500C600C000C82
:10099000360C490C490C490C360C000C300C490C37
:1009A000490C4A0C3C0C000C120004002B500808A7
:1009B000D8A4E4EF04F02B6A808A929A010E10EC1E
:1009C00000F0809A929A1200040029AEF2EF04F02F
:1009D00080888086010E10EC00F08096D890293631
:1009E0002B2AE3D780988086010E10EC00F08096C9
:0809F000D89029362B2AD9D733
:020000040030CA
:04000000FFF9FFFF06
:02000600FBFFFE
:00000001FF
