:04000000BA01A22877
:100008000800A7008611061106118316861106112D
:1000180006110F30860583122708BA1831283A309E
:10002800A100983069203330A60045201330A10084
:100038008830692045206430682045206430682075
:100048002230A6004520283030200C3030200630E1
:100058003020BA14270831283A14A6003A1C3F2841
:100068000611033C031C442844200730A100D0306B
:100078006920031408003A14FE3C03199D2806154C
:100088003A1C3A1086150F3086052608F039860482
:100098008611A60E3A184528323068200314080045
:1000A80083178001840AFF3E031D55289D28A3015C
:1000B800A200FF30A207031CA307031C9D280330DE
:1000C800A100DF3069205D28A101E83EA000A10958
:1000D800FC30031C7228A00703186F28A0076400CF
:1000E800A10F6F2820187828A01C7C2800007C28E5
:1000F8000800A101A301A20002308228A800230859
:100108002102031D89282208200204300318013027
:10011800031902302805031DFF309D280038031DF0
:10012800FF300405031DFF309D280404031DFF3024
:100138009D28831303138312640008008B17A728D4
:100148008B1B08007B2BA42083168530810083122B
:10015800A420A0308B00A4208101A42007309F0098
:10016800A4202030840060305520A0308400503016
:1001780055202030840030305420A420FE30052043
:1001880001300520A4200130A300F4305C20A42015
:10019800FE30052002300520A420C2016400103082
:1001A800420203184029A42040082F3C031C31298F
:0E01B800DF20C100312901308A0040080029F3
:100200008207203420342034203420342034203419
:10021000203420342034203420342034203420343E
:100220004F3454345534473445344E3420344F34ED
:1002300054344F344D344134533459344F344E34A4
:10024000203420342034203420342034203420340E
:1002500020342034203420342034203420342034FE
:100260002334A42064004108233C031D3829482975
:10027000A42041080520A420C00AA420C20FD2282F
:10028000A4207D305B20A4200F30C002A420CB2806
:10029000A420FE30052001300520A420FE300520DA
:1002A00080300520A4202030052020300520593042
:1002B0000520493005204C300520443005204930C8
:1002C00005205A30052020300520553005204330C8
:1002D000052047300520453005204E3005202030D0
:1002E0000520203005202030052020300520A420C6
:1002F000FE300520C0300520A420203005204B30E2
:100300000520553005204D300520413005204E3068
:100310000520443005204130052020300520523092
:1003200005204F3005204C30052045300520533046
:1003300005204930052020300520203005202030C0
:100340000520A4200130A300F4305C20A420FE305E
:10035000052001300520A4206400851FB329A420B6
:10036000B629A420B629A4200F2AA420A420FE3058
:100370000520803005204D3005204F3005205430B9
:1003800005204F30052052300520553005204E30D5
:1003900005202030052054300520453005205230FE
:1003A00005204D300520493005204B300520A42084
:1003B000FE300520C0300520523005204F3005208A
:1003C0004C300520453005205330052049300520AC
:1003D00020300520203005204130052054300520F4
:1003E00054300520493005202030052020300520DC
:1003F000A4200610831606108312A42085118316EC
:1004000085118312A4208610831686108312A420DF
:100410004610A420C801A420C701A420AB29A42011
:10042000FE300520803005204D3005204F3005205E
:10043000543005204F300520523005203A30052039
:10044000A42064008519282AA4202B2AA4202B2A62
:10045000A420732AA420A420FE3005208630052085
:1004600053300520543005204F30052050300520F2
:1004700020300520203005202030052020300520A8
:100480002030052020300520203005202030052098
:10049000203005202030052020300520A420FE300B
:1004A0000520C030052020300520203005202030D8
:1004B0000520203005202030052020300520203068
:1004C0000520203005202030052020300520203058
:1004D0000520203005202030052020300520203048
:1004E0000520A420982AA420FE300520863005206F
:1004F000533005205430052041300520523005206E
:1005000054300520203005202030052020300520E3
:100510002030052020300520203005202030052007
:10052000203005202030052020300520A420982AE6
:10053000A420003085180130A00001307D20B200D9
:100540000030851B0130A00001307D20B40032084E
:10055000840034089920B400B500640034083504E0
:100560000319B32A642BA420003085180130A000A1
:1005700000307D20B2000030851B0130A00000302B
:100580007D20B4003208840034089220B400B50005
:10059000003005180130A00001307D20B60034087D
:1005A0003504840036089220B600B70000304618A3
:1005B0000130A00001307D20B800360837048400E7
:1005C00038089920B800B9006400380839040319C4
:1005D000ED2AA420F02AA420F02AA420642BA42031
:1005E000A4204614A420640047080F3C031DFB2AE6
:1005F000A420C614A420A4206400C61C002B322B07
:10060000A4200610831606108312A42085158316D5
:1006100085118312A4208614831686108312A420C9
:10062000FE300520C0300520433005204130052034
:100630004C30052049300520533005204D30052031
:100640004130052020300520593005204930052053
:100650004C30052044300520493005205A30052013
:10066000A420792BA4200614831606108312A4203C
:100670008515831685118312A42086108316861093
:100680008312A420FE300520C03005204330052011
:10069000413005204C3005204930052053300520DD
:1006A0004D300520413005202030052055300520F3
:1006B0004330052047300520453005204E300520C9
:1006C00020300520A420AB29A42006108316061094
:1006D0008312A4208511831685118312A42086100D
:1006E000831686108312A4204610A420C801A420DB
:1006F000C701A420AB296400461C802B812B812BD1
:10070000892BC80A640048083D3C031D892BC80199
:06071000C70A0B110900ED
:02400E006D3F04
:00000001FF
