:020000001029C5
:100008000800083035190130A300A201380884001F
:1000180036086F203608800484130005FF3E351D1E
:10002800A20C3519A20D32308A20A30B0C28220805
:1000380003140B29A200083035190130A300A20CC3
:100048003808840036086F203608031880043C30CE
:100058008A2036088004A30B232803140B29B51C17
:100068000B293928B500351C0B29380884003608B7
:100078006F200130A100F4308B2036088004013055
:10008800A100F4308B280830A6003908840037080E
:1000980035196D20351D6F20380884003609732006
:1000A800260803190B293518A92038088400A10C43
:1000B800A00C00083604031C360680006620A60B38
:1000C80059280B2939088400370880060000800663
:1000D800080080047228FF3A80057328FF3A8417C5
:1000E80080050B2983178001840AFF3E031D7728AA
:1000F8000B29A301A200FF30A207031CA307031CBE
:100108000B290330A100DF308B207F28A101E83EB6
:10011800A000A109FC30031C9428A007031891280B
:10012800A0076400A10F912820189A28A01C9E28D7
:1001380000009E280800013EA7000A30A200A30183
:10014800D920A70BA42824080800A201A301B028DD
:10015800A10CA00CA20DA30DFF3E0318AC28230888
:10016800A1002208A0000B29A2000130BB28A8008A
:1001780023082102031DC228220820020430031884
:100188000130031902302805031DFF300B29A20096
:100198002008A6002408A0002608A4002108A6001C
:1001A8002508A1002608A500DB28A501A401103018
:1001B800A600210DA40DA50D2208A4022308031CE6
:1001C800230FA5020318EF282208A4072308031801
:1001D800230FA5070310A00DA10DA60BDD282008ED
:1001E8000B291030A800A101A001A70CA60C031C24
:1001F80003292208A00723080318230FA107A10C2D
:10020800A00CA50CA40CA80BF92824080B2983130F
:100218000313831264000800850186018316860192
:100228000730850083128B171C298B1B08003A2C7A
:10023800192183160530810083121921A0308B0003
:1002480019218101192107309F00192120308400CC
:1002580060307720A0308400503077202030840030
:10026800303076201921C8307D2019210D30C50085
:1002780019211830C2001921FF308600192185156F
:100288008316851183121921640007304B02031C61
:100298005A29192164000B304B02031C55290130DF
:1002A800CB001921252219215C2919211921642142
:1002B80019216400051CFE2A19218C2319214729BC
:1002C8001921640046081E3C031D6E2985118316FA
:1002D8008511831219214508A000A10101309F2032
:1002E800C000C1011921082219210630B8000130C7
:1002F800B6000630B9000230B7000130B500470833
:10030800A000A101472019210615831606118312A2
:10031800192102308A201921061183160611831229
:1003280019214508A000A10100309F20C000C1018B
:100338001921082219210630B8000130B60006300C
:10034800B9000230B7000130B5004708A000A1018C
:100358004720192186158316861183121921023028
:100368008A201921861183168611831219214908BA
:10037800A000A10101309F20C000C101192108225D
:1003880019210630B8000130B6000630B900023035
:10039800B7000130B5004708A000A1014720192186
:1003A8000616831606128312192102308A20192193
:1003B800061283160612831219214908A000A1010A
:1003C80000309F20C000C1011921082219210630E0
:1003D800B8000130B6000630B9000230B70001306D
:1003E800B5004708A000A1014720192186168316E9
:1003F80086128312192102308A2019218612831647
:10040800861283121921080019214108031D232A85
:1004180040080B3C031C232A1322C700232A02305E
:100428008A00400882073F3406345B344F34663410
:100438006D347D3407347F346F3463343934192193
:100448000800192185118316851183121921C70106
:1004580019210630B8000130B6000630B900023064
:10046800B7000130B5004708A000A10147201921B5
:100478000615831606118312192102308A201921C4
:10048800061183160611831219216400BD1D4E2A18
:100498004030C70019210630B8000130B6000630D8
:1004A800B9000230B7000130B5004708A000A1012B
:1004B80047201921861583168611831219210230C7
:1004C8008A201921861183168611831219213E0864
:1004D800A0003F08A10001309F20C000C1011921E0
:1004E800082219210630B8000130B6000630B900DC
:1004F8000230B7000130B5004708A000A10147202D
:1005080019210616831606128312192102308A2031
:100518001921061283160612831219213E08A0001B
:100528003F08A10000309F20C000C1011921082206
:1005380019210630B8000130B6000630B900023083
:10054800B7000130B5004708A000A10147201921D4
:100558008616831686128312192102308A201921E1
:10056800861283168612831219210A30C000C1012F
:100578001921082219210630B8000130B6000630CA
:10058800B9000230B7000130B5004708A000A1014A
:1005980047201921061783160613831219210230E2
:1005A8008A201921061383160613831219210B308A
:1005B800C000C1011921082219210630B8000130F4
:1005C800B6000630B9000230B7000130B500470860
:1005D800A000A101472019218617831686138312CC
:1005E800192102308A201921861383168613831253
:1005F80019210800192164000518042B1921FF2A64
:100608001921642119218511831685118312192155
:100618006400051C302B1921640005191D2B1921B4
:10062800C50A192164004508183C031D1C2BC50187
:1006380019211921640085182C2B1921C5031921AA
:1006480064004508FF3C031D2B2B1730C5001921FA
:10065800192168231921042B192164000518362B48
:100668001921312B1921642119218511831685112E
:10067800831219216400051C7F2B192164000519B8
:100688004F2B1921C20A1921640042083C3C031D62
:100698004E2BC20119211921640085185E2B1921DE
:1006A800C203192164004208FF3C031D5D2B3B3047
:1006B800C2001921192168231921362B1921640038
:1006C8000518682B1921632B1921C001C1014008A5
:1006D800A0004108A1000730A3000830B820031D7E
:1006E8007D2B192164308A201921C00A0319C10FF2
:1006F8006B2B192108001921851583168511831282
:100708001921640005188A2B1921852B19214729DD
:1007180019215E30BC00FF30BD001921CF231921FB
:10072800080019210530B8001030B6000130362015
:10073800CC301E2044301E20332019210530B8004B
:100748001030B60004303620052001390319441052
:10075800031D4414332019216400441CA12B1921C2
:100768000530B8001030B60001303620CC301E20DD
:10077800BE301E20332019210530B8001030B600D5
:10078800023036200520BC000520BD003320192189
:10079800CF231921080019212B30C8001921640022
:1007A800BD1DF92B19212D30C80019213C08FF3C2B
:1007B800B2003D08031C013EFF3CB300B20A031916
:1007C800B30A3208A6003308A7007130A20002302D
:1007D800A300F520CA001921A3010A30CB20BE00CE
:1007E8002108BF001921122C1921192101303C07B9
:1007F800B2003D080318013EB3007130A600023074
:10080800A7003208A2003308A300F520CA00192166
:10081800A3010A30CB20BE002108BF0019213E08E1
:10082800A0003F08A100E830A2000330A300D920AF
:100838002408B2002508B3003208A0003308A1003C
:100848006430A200A301D920BA002108BB001921F5
:100858003E08A0003F08A100E830A2000330A30032
:10086800D920BE002108BF0019210800C60A64006B
:1008780046083A3C031D602CC601C90ACB0A64002D
:1008880007304B0203184C2C8515831685118312EB
:10089800640049083C3C031D602CC901C20A64007D
:1008A80042083C3C031D602CC201C50A640045088F
:1008B800183C031D602CC5010B11090019216300A8
:0208C800632C9F
:02400E00543F1D
:00000001FF
