:020000040000FA
:020000002728AF
:08000800FF00030E8301A000BC
:100010000A08A1008A010408A2000E282A0881000B
:1000200001302D02AD00AD088A110A12031D1D28F2
:100030002B08AD0001302E02AE000B112208840007
:1000400021088A00200E8300FF0E7F0E0900FF307A
:10005000A400FF30A500FF30A600FF30A7000F303E
:10006000A800A5138A110A12182125178A110A124D
:100070001B21AF012F08B1008A110A120421320896
:10008000B000B0088A110A12031D49288A110A1209
:100090005C2830088A110A12662001308A110A127F
:1000A000E120AF0A2F08B1008A110A120421320898
:1000B000B0008A110A12412801308A110A12D82090
:1000C0008A110A1239288A110A126328B1003108EC
:1000D0008A110A126B28B2008A110A129E208A1114
:1000E0000A12AF208A110A12AF20A9178A110A1228
:1000F00012218A110A12AF200830B300A9138A1105
:100100000A1232188428A9178A110A121221031020
:10011000B20C8A110A12AF208A110A12B30B7E2880
:10012000A9138A110A1212210230B3008A110A128D
:10013000AF208A110A12B30B9628080053308A1197
:100140000A12A228B3000130AC003230AB000E30EE
:100150003302013CAA0008308A110A12BA28AE08FC
:100160008A110A120319B7288A110A12AF282C081B
:10017000AE000800B4008A110A128B1BC2288A1133
:100180000A12C6288B138A110A12BB28831601088B
:100190008312D039340783166400810083122A0841
:1001A00081002B08AD002C08AE008B168B170800C1
:1001B000B1003108B2006430B30064308A110A1211
:1001C000EA28B1003108B2006430B3000A308A1165
:1001D0000A12EA28B400FF30B5003308B70032082D
:1001E000B60077308A110A1235070318F4288A11ED
:1001F0000A12B60BF1288A110A12B70BEF288A11DE
:100200000A12B40BED280800B20083120313310860
:1002100003178D0083168C130C1483120C08031320
:10022000B20008008A110A12152929088600080060
:100230008A110A121E298A110A121E29250866002F
:020240000800B4
:1042000061003800370037003A0020006800650080
:104210006C006C006F00200077006F0072006C0073
:0842200064000D000A0000001B
:02400E00723FFF
:00000001FF
