:020000040000FA
:020000000428D2
:08000800FF30A100FF30A2004F
:1000100021103C2023103B2032301A20241434209D
:100020002514332032301A20241034202510332098
:100030000C281928A6002608A7006430A800013063
:100040002128A900FF30AA002808AC002708AB002F
:1000500017302A0703182928AB0B2828AC0B2628B1
:10006000A90B24280800352838282508870008000F
:100070002408850008003D28402823086700080060
:06008000210865000800E4
:02400E0084111B
:00000001FF
