:020000040000FA
:020000000428D2
:08000800FF30A100FF30A2004F
:10001000FF30A300FF30A4000F30A5008A110A12A0
:100020004E2021108A110A125C2005308A110A1212
:100030002B2026148A110A12562005308A110A1222
:100040002B2026108A110A1256208A110A1215280E
:100050008A110A122828A7002708A8006430A900DE
:100060000A308A110A123428AA00FF30AB0029088E
:10007000AD002808AC0077308A110A122B0703184C
:100080003E288A110A12AC0B3B288A110A12AD0BCA
:1000900039288A110A12AA0B372808008A110A1275
:1000A000622007309F008A110A1265288A110A12FD
:1000B00059282608850008008A110A125F2821089D
:1000C0006500080083160313080083120313080059
:02400E00323F3F
:00000001FF
