:100000009128A501A400B3172730A30010301420B5
:100010000330A300E8301420A30164301420A301AE
:100020000A30142024081F28A2002508A100240853
:10003000A00070202008031DB313B31B0800303E3E
:10004000A600360884000930A70003102C20A60C57
:10005000A70B262803142C288413B31D3B28000863
:100060003404331D34068000841700083404031C54
:1000700034068000462800083404031C3406331973
:10008000340680008417340980054628330D06396C
:10009000A0004F20A100A00A4F2000005C280030E3
:1000A0008A00200882070134753403341534003483
:1000B0003C340C34D934A101E83EA000A109FC3045
:1000C000031C6528A00703186228A0076400A10F7D
:1000D000622820186B28A01C6F2800006F280800D9
:1000E000A501A4011030A600210DA40DA50D220824
:1000F000A4022308031C230FA50203188628220844
:10010000A40723080318230FA5070310A00DA10DB2
:10011000A60B742820088C28831303138312640011
:1001200008008316FF3086008312B801B80164000E
:100130008A110A12061C9E280130B80064008A1138
:100140000A12861CA5280230B80064008A110A121F
:10015000061DAC280330B80064008A110A12861DFF
:10016000B3280430B80064008A110A12061EBA28A7
:100170000530B80064008A110A12861EC1280630B4
:10018000B80064008A110A12061FC8280730B80098
:1001900064008A110A12861FCF280830B800053083
:1001A000B6000130B4000430B30038088A010120E1
:0A01B00041308A0120208A019628C0
:02400E00753FFC
:00000001FF
