:1000000000308A008C2900008A1D0A128A190A16FB
:100010008A11831A0F28A500030EA6001428831244
:10002000A500030EA600A6140A08AD00A50E04083C
:10003000A7002008A8002108A9002208AA00230878
:10004000AB002408AC0083128B1E28280B19402813
:10005000270884002808A0002908A1002A08A20077
:100060002B08A3002C08A4002D088A000A1A8A1560
:100070000A12260E83008312250EA6188316090085
:100080008A117A280A108A100A118207013403346F
:1000900006340C34183430346034C0348034C03406
:1000A0006034303418340C34063403340A108A10A7
:1000B0000A118207573465346C3463346F346D34FD
:1000C0006534203474346F3400340A108A100A11F5
:1000D000820727344C346534743427347334203425
:1000E00070346C34613479342034503449344334BE
:1000F000273400343D308100051A80288715812877
:100100008711851A8528871686288712B10A310833
:10011000063C031D9228B101B00A3008103C031DB3
:100120009228B0010B118A1128283230840000086F
:100130000319A9280330A100A001A00B9D28A10B41
:100140009C283C30A000A00BA32800000000800BDE
:100150009A28003432088500AF102F0883168700D4
:10016000831287102F102F08831687008312071021
:100170002F112F0883168700831207152F112F08C0
:1001800083168700831207115330A000A00BC628E6
:1001900000343F308316850083122F102F088316FA
:1001A000870083120710AF102F0883168700831271
:1001B00087142F112F08831687008312071505084F
:1001C0000F39B4002F112F088316870083120711EF
:1001D0002F112F08831687008312071505080F3982
:1001E000B5002F112F0883168700831207113030B6
:1001F000831685008312B40E34083504A10000294B
:1002000000343208B3003308AE00AE0E2E0885006D
:10021000AF102F0883168700831287102F102F0826
:1002200083168700831207102F112F08831687006B
:10023000831207152F112F088316870083120711C9
:10024000330885002F112F088316870083120715A6
:100250002F112F088316870083120711C920210848
:10026000B300A11B2E29342900340F30B200952091
:100270000330B200AA200530B20095200330B2004E
:10028000AA200330B200AA200230B200AA202E30E9
:10029000B20001210830B20001210D30B20001216D
:1002A0000630B20001218A11BC290130B2000121BF
:1002B0008A11BD293308AE00AE0E2E088500AF109E
:1002C0002F0883168700831287102F102F0883169C
:1002D0008700831207142F112F08831687008312BB
:1002E00007152F112F088316870083120711330873
:1002F00085002F112F0883168700831207152F11F1
:100300002F088316870083120711C9202108B40023
:10031000A11B85298B29003484011F3083059F3060
:10032000840007308000FF30AF00063083169F0046
:100330008312A000A01DA429073081018130840010
:100340000008C0390F388000640081308400000844
:10035000C039200480008B16C0308B0430308316E7
:10036000850000308600803087008312AF003D306A
:100370008100B101B00135295529B201320856205A
:1003800000380319C729B20AB3005A21BE29C03068
:10039000B2000121B2013208652000380319D429C6
:1003A000B20AB3005A21CB2930084220A1008600AE
:0403B000D4296300E9
:02400E00FA3F77
:00000001FF
;PIC16F873
