:10000000830100308A0004288301E22F820708342C
:100010000C34FE34FF34FE340C3408340034003425
:0E002000103430347F34FF347F3430341034E9
:100FA80083120313A2000430A3005330A400A40B3F
:100FB800DB2FA30BD92FA20BD72F080083160313FF
:100FC80086018501073083129F008601A001A101D7
:100FD80000308A002008062086002008850001309D
:100FE800D427A00A0319A10A0030210210300319DE
:080FF80020020318EA2FEC2F80
:00000001FF
