:020000001029C5
:100008000800083035190130A300A201380884001F
:1000180036086F203608800484130005FF3E351D1E
:10002800A20C3519A20D32308A20A30B0C28220805
:1000380003140B29A200083035190130A300A20CC3
:100048003808840036086F203608031880043C30CE
:100058008A2036088004A30B232803140B29B51C17
:100068000B293928B500351C0B29380884003608B7
:100078006F200130A100F4308B2036088004013055
:10008800A100F4308B280830A6003908840037080E
:1000980035196D20351D6F20380884003609732006
:1000A800260803190B293518A92038088400A10C43
:1000B800A00C00083604031C360680006620A60B38
:1000C80059280B2939088400370880060000800663
:1000D800080080047228FF3A80057328FF3A8417C5
:1000E80080050B2983178001840AFF3E031D7728AA
:1000F8000B29A301A200FF30A207031CA307031CBE
:100108000B290330A100DF308B207F28A101E83EB6
:10011800A000A109FC30031C9428A007031891280B
:10012800A0076400A10F912820189A28A01C9E28D7
:1001380000009E280800013EA7000A30A200A30183
:10014800D920A70BA42824080800A201A301B028DD
:10015800A10CA00CA20DA30DFF3E0318AC28230888
:10016800A1002208A0000B29A2000130BB28A8008A
:1001780023082102031DC228220820020430031884
:100188000130031902302805031DFF300B29A20096
:100198002008A6002408A0002608A4002108A6001C
:1001A8002508A1002608A500DB28A501A401103018
:1001B800A600210DA40DA50D2208A4022308031CE6
:1001C800230FA5020318EF282208A4072308031801
:1001D800230FA5070310A00DA10DA60BDD282008ED
:1001E8000B291030A800A101A001A70CA60C031C24
:1001F80003292208A00723080318230FA107A10C2D
:10020800A00CA50CA40CA80BF92824080B2983130F
:100218000313831264000800FF30850086018316EB
:1002280086011F30850083128B171D298B1B080040
:10023800B22C1A2183168530810083121A21A0302E
:100248008B001A2181011A2107309F001A212030C2
:10025800840060307720A030840050307720203030
:100268008400303076201A21C8307D201A210130D0
:10027800CB001A21C4101A2186011A216400073004
:100288004B02031C54291A2164000B304B02031C37
:100298004F290130CB001A216B221A2156291A2125
:1002A8001A215E211A216400051C442B1A210424FA
:1002B8001A2141291A21640046081E3C031D682999
:1002C80085118316851183121A214508A000A10102
:1002D80001309F20C000C1011A214E221A21063088
:1002E800B8000130B6000630B9000230B70001305E
:1002F800B5004708A000A10147201A21061583165A
:10030800061183121A2102308A201A210611831637
:10031800061183121A214508A000A10100309F2070
:10032800C000C1011A214E221A210630B80001303E
:10033800B6000630B9000230B7000130B5004708F2
:10034800A000A10147201A21861583168611831261
:100358001A2102308A201A218611831686118312E7
:100368001A214208A000A10101309F20C000C1014C
:100378001A214E221A210630B8000130B600063084
:10038800B9000230B7000130B5004708A000A1014C
:1003980047201A2106168316061283121A210230E4
:1003A8008A201A2106128316061283121A2142087D
:1003B800A000A10100309F20C000C1011A214E22D7
:1003C8001A210630B8000130B6000630B9000230F4
:1003D800B7000130B5004708A000A10147201A2145
:1003E80086168316861283121A2102308A201A2151
:1003F80086128316861283121A214908A000A101C9
:1004080001309F20C000C1011A214E221A21063056
:10041800B8000130B6000630B9000230B70001302C
:10042800B5004708A000A10147201A210617831626
:10043800061383121A2102308A201A210613831602
:10044800061383121A214908A000A10100309F2039
:10045800C000C1011A214E221A210630B80001300D
:10046800B6000630B9000230B7000130B5004708C1
:10047800A000A10147201A2186178316861383122C
:100488001A2102308A201A218613831686138312B2
:100498001A2108001A214108031D692A40080B3C4B
:1004A800031C692A5922C700692A02308A004008B9
:1004B80082073F3406345B344F3466346D347D3400
:1004C80007347F346F34633439341A2108001A2111
:1004D80085118316851183121A21C7011A21063046
:1004E800B8000130B6000630B9000230B70001305C
:1004F800B5004708A000A10147201A210615831658
:10050800061183121A2102308A201A210611831635
:10051800061183121A216400BD1D942A4030C700B9
:100528001A210630B8000130B6000630B900023092
:10053800B7000130B5004708A000A10147201A21E3
:1005480086158316861183121A2102308A201A21F1
:1005580086118316861183121A213E08A0003F08CF
:10056800A10001309F20C000C1011A214E221A218A
:100578000630B8000130B6000630B9000230B700C6
:100588000130B5004708A000A10147201A2106162E
:100598008316061283121A2102308A201A210612A3
:1005A8008316061283121A213E08A0003F08A100F4
:1005B80000309F20C000C1011A214E221A210630A6
:1005C800B8000130B6000630B9000230B70001307B
:1005D800B5004708A000A10147201A2186168316F6
:1005E800861283121A2102308A201A218612831653
:1005F800861283121A210A30C000C1011A214E2224
:100608001A210630B8000130B6000630B9000230B1
:10061800B7000130B5004708A000A10147201A2102
:1006280006178316061383121A2102308A201A210C
:1006380006138316061383121A210B30C000C1015A
:100648001A214E221A210630B8000130B6000630B1
:10065800B9000230B7000130B5004708A000A10179
:1006680047201A2186178316861383121A2102300F
:100678008A201A2186138316861383121A210800EA
:100688001A21C4141A21DE231A21640005184E2BDE
:100698001A21492B1A215E211A21851183168511E9
:1006A80083121A216400051C7A2B1A21640005198B
:1006B800672B1A21C50A1A2164004508183C031D36
:1006C800662BC5011A211A2164008518762B1A2178
:1006D800C5031A2164004508FF3C031D752B17301C
:1006E800C5001A211A21B4231A214E2B1A21DE2300
:1006F8001A2164000518822B1A217D2B1A215E21EC
:100708001A2185118316851183121A216400051C8C
:10071800CB2B1A21640005199B2B1A21C20A1A2116
:10072800640042083C3C031D9A2BC2011A211A217D
:1007380064008518AA2B1A21C2031A2164004208F2
:10074800FF3C031DA92B3B30C2001A211A21B423F8
:100758001A21822B1A2164000518B42B1A21AF2BF9
:100768001A21C001C1014008A0004108A1000D30B4
:10077800A300AC30B820031DC92B1A210A308A20E7
:100788001A21C00A0319C10FB72B1A2108001A2110
:10079800DE231A2185158316851183121A21640018
:1007A8000518D82B1A21D32B1A21C4101A21C901D4
:1007B8001A2141291A2108308506831685118312CA
:1007C8001A2196307D201A21083085068316851156
:1007D80083121A2196307D201A2108308506831647
:1007E800851183121A2196307D201A21083085063A
:1007F8008316851183121A2196307D201A2108004C
:100808001A215E30BC00FF30BD001A2147241A218E
:1008180008001A210530B8001030B6000130362023
:10082800CC301E2044301E2033201A210530B80059
:100838001030B60004303620052001390319441061
:10084800031D441433201A216400441C192C1A2156
:100858000530B8001030B60001303620CC301E20EC
:10086800BE301E2033201A210530B8001030B600E3
:10087800023036200520BC000520BD0033201A2197
:1008880047241A2108001A212B30C8001A216400B5
:10089800BD1D712C1A212D30C8001A213C08FF3CBF
:1008A800B2003D08031C013EFF3CB300B20A031925
:1008B800B30A3208A6003308A7007130A20002303C
:1008C800A300F520CA001A21A3010A30CB20BE00DC
:1008D8002108BF001A218A2C1A211A2101303C074D
:1008E800B2003D080318013EB3007130A600023083
:1008F800A7003208A2003308A300F520CA001A2175
:10090800A3010A30CB20BE002108BF001A213E08EF
:10091800A0003F08A100E830A2000330A300D920BE
:100928002408B2002508B3003208A0003308A1004B
:100938006430A200A301D920BA002108BB001A2103
:100948003E08A0003F08A100E830A2000330A30041
:10095800D920BE002108BF001A2108006400C4186D
:10096800DB2CC60A640046083A3C031DDB2CC60192
:10097800C90ACB0A640007304B020318C72C851537
:10098800831685118312640049083C3C031DDB2C47
:10099800C901C20A640042083C3C031DDB2CC201A9
:1009A800C50A64004508183C031DDB2CC5010B1162
:0809B80009001A216300DE2C86
:02400E00453F2C
:00000001FF
