:020000040000FA
:1000000001288316031386018312031386010A2035
:100010002420092802301520283015200C30152006
:1000200088301520043015200800A200220E1B2065
:1000300022081B2008000F398600831203130612C2
:1000400086164E208612080059303F2055303F203A
:1000500043303F2045303F204C303F2006301520B4
:10006000362041303F2059303F200800C030152055
:100070001430152014301520143015200800A2006B
:10008000220E45202208452008000F3986008312E1
:100090000313061686164E2086120800FF30A000B5
:0E00A000FF30A100A10B5228A00B5028080031
:00000001FF
