:10000000A228A2008316861283120930A3000310CF
:100010001420A20CA30B0828031414200130A10003
:10002000F430572003149D28031819280000861661
:100030001B2886121B280030A10066305728B60006
:1000400032202008210403199D28972084133608A4
:10005000800664002B282C28A00A0319A10F292848
:1000600080069D28FF3A841780059D28A000A00DDA
:10007000A00D200D3839C1389F000030A10032306A
:1000800057201F151F1942281E08A10083161E089D
:100090009D28A301A200FF30A207031CA307031C95
:1000A0009D280330A100E63057204B28A101FC3EDB
:1000B000A000A109031C6228FF300000A00703185C
:1000C0005D28A0076400A10F5C280800A000A11B08
:1000D000972020089D28A20001307128A200063038
:1000E0007128A80023082102031D78282208200275
:1000F000043003180130031902302805031DFF30B6
:100100009D281030A800A101A001A70CA60C031C7B
:100110008F282208A00723080318230FA107A10C8A
:10012000A00CA50CA40CA80B852824089D28A009C8
:10013000A109A00A0319A10A08008313031383125B
:10014000640008008316FF30850082309F00831210
:10015000BE01BF0142308A01012061308A010120C5
:100160006C308A01012062308A0101206F308A01DF
:10017000012074308A01012020308A01012045309D
:100180008A01012054308A0101200330A300E830A5
:100190008A014A2007158316071183120330A30032
:1001A000E8308A014A2007118316071101308312B3
:1001B0008A013620BA002108BB0002308A013620AD
:1001C000BC002108BD0000308A013620C200210891
:1001D000C30004308A013620C0002108C100400855
:1001E0004202B2004108031C013E4302B30033083F
:1001F000A10032088A016620B2002108B30032084B
:10020000A6003308A7000730A200A3018A018120BD
:10021000BE002508BF003E08A0003F08A100013035
:10022000A300F4308A016E208A110A12031D1C29D2
:10023000F430BE000130BF004008A0004108A1001A
:100240004308A30042088A016B208A110A12031D89
:100250005B2907108316071083123A083E07B20085
:100260003B080318013E3F07B3003208A0003308E3
:10027000A1000730840001308A011F2005308A0167
:10028000492087108316871083123E083C02B20073
:100290003F08031C013E3D02B3003208A0003308B2
:1002A000A1000730840002308A011F2005308A0136
:1002B00049208A01E32807108316071083123E089D
:1002C0003A02B2003F08031C013E3B02B300320871
:1002D000A0003308A1000730840001308A011F20EC
:1002E00005308A01492087108316871083123C0845
:1002F0003E07B2003D080318013E3F07B300320835
:10030000A0003308A1000730840002308A011F20BA
:1003100005308A0149208A01E32863008A018D297A
:02400E00753FFC
:00000001FF
