:020000040000FA
:020000000428D2
:08000800FF30A200FF30A3004D
:1000100007309F000030C1206730BF2083160030BA
:10002000C920831283163F3092008312043092005D
:1000300000308920A501A010A601201170309F205A
:10004000A608031D4E28A0182728A0142828A010B1
:100050002412A0182C282416B720061C3528A50821
:10006000031D34282416B7203B282508FF3C031D18
:100070003B282416B720A0184E28061F4E28061C21
:1000800049282508003C0318482801302502A5000E
:100090004E28FF30250203184E28A50A861852283C
:1000A000A501562806195628FF30A50025088920E5
:1000B0002410A50803195D282414BB20A410A5084A
:1000C0000319662880302502031C6728A414BA206F
:1000D00024112508FF3C0319712825087F3C031CC7
:1000E00072282415B920A4112508FF3C031979288A
:1000F000A415B820A60A861A80280230A7008228F4
:100100007830A70026082702031D8728A6011E288D
:100110008828A8002808AA000230AB00CD202C08AF
:10012000A9002908950028080339AB000430AC0069
:10013000DB202D08AA002A080C3E97000800A80022
:100140002808A900A908031DA628AA280A30AB2060
:10015000A903A2280800AA00FB30AB00FE30AC00C7
:100160002A082B07031C00342C07B2280800BC28DF
:10017000BC28BC28BC28BC28240885000800A30093
:10018000C328A200C62823086600080022086500CC
:100190000800A5002508620008002B08003C031C8D
:1001A000D228D8280310AA0C01302B02AB00CD288E
:1001B0002A08AC0008002C08003C031CE028E628B4
:1001C0000310AB0D01302C02AC00DB282B08AD0076
:0201D000080025
:02400E00F33F7E
:00000001FF
